{
  "_format": "hh-sol-artifact-1",
  "contractName": "AtomicSwapEther",
  "sourceName": "contracts/AtomicSwapEther.sol",
  "abi": [
    {
      "constant": false,
      "inputs": [
        {
          "name": "_swapID",
          "type": "bytes32"
        },
        {
          "name": "_withdrawTrader",
          "type": "address"
        },
        {
          "name": "_secretLock",
          "type": "bytes32"
        },
        {
          "name": "_timelock",
          "type": "uint256"
        }
      ],
      "name": "open",
      "outputs": [],
      "payable": true,
      "stateMutability": "payable",
      "type": "function"
    },
    {
      "constant": false,
      "inputs": [
        {
          "name": "_swapID",
          "type": "bytes32"
        },
        {
          "name": "_secretKey",
          "type": "bytes"
        }
      ],
      "name": "close",
      "outputs": [],
      "payable": false,
      "stateMutability": "nonpayable",
      "type": "function"
    },
    {
      "constant": true,
      "inputs": [
        {
          "name": "_swapID",
          "type": "bytes32"
        }
      ],
      "name": "check",
      "outputs": [
        {
          "name": "timelock",
          "type": "uint256"
        },
        {
          "name": "value",
          "type": "uint256"
        },
        {
          "name": "withdrawTrader",
          "type": "address"
        },
        {
          "name": "secretLock",
          "type": "bytes32"
        }
      ],
      "payable": false,
      "stateMutability": "view",
      "type": "function"
    },
    {
      "constant": false,
      "inputs": [
        {
          "name": "_swapID",
          "type": "bytes32"
        }
      ],
      "name": "expire",
      "outputs": [],
      "payable": false,
      "stateMutability": "nonpayable",
      "type": "function"
    },
    {
      "constant": true,
      "inputs": [
        {
          "name": "_swapID",
          "type": "bytes32"
        }
      ],
      "name": "checkSecretKey",
      "outputs": [
        {
          "name": "secretKey",
          "type": "bytes"
        }
      ],
      "payable": false,
      "stateMutability": "view",
      "type": "function"
    },
    {
      "anonymous": false,
      "inputs": [
        {
          "indexed": false,
          "name": "_swapID",
          "type": "bytes32"
        },
        {
          "indexed": false,
          "name": "_withdrawTrader",
          "type": "address"
        },
        {
          "indexed": false,
          "name": "_secretLock",
          "type": "bytes32"
        }
      ],
      "name": "Open",
      "type": "event"
    },
    {
      "anonymous": false,
      "inputs": [
        {
          "indexed": false,
          "name": "_swapID",
          "type": "bytes32"
        }
      ],
      "name": "Expire",
      "type": "event"
    },
    {
      "anonymous": false,
      "inputs": [
        {
          "indexed": false,
          "name": "_swapID",
          "type": "bytes32"
        },
        {
          "indexed": false,
          "name": "_secretKey",
          "type": "bytes"
        }
      ],
      "name": "Close",
      "type": "event"
    }
  ],
  "bytecode": "0x608060405234801561001057600080fd5b506111a5806100206000396000f3fe608060405260043610610067576000357c0100000000000000000000000000000000000000000000000000000000900480630eed85481461006c5780631a26720c146100ce578063399e0792146101a0578063c644179814610230578063f200e4041461026b575b600080fd5b6100cc6004803603608081101561008257600080fd5b8101908080359060200190929190803573ffffffffffffffffffffffffffffffffffffffff169060200190929190803590602001909291908035906020019092919050505061031f565b005b3480156100da57600080fd5b5061019e600480360360408110156100f157600080fd5b81019080803590602001909291908035906020019064010000000081111561011857600080fd5b82018360208201111561012a57600080fd5b8035906020019184600183028401116401000000008311171561014c57600080fd5b91908080601f016020809104026020016040519081016040528093929190818152602001838380828437600081840152601f19601f82011690508083019250505050505050919291929050505061058b565b005b3480156101ac57600080fd5b506101d9600480360360208110156101c357600080fd5b8101908080359060200190929190505050610983565b604051808581526020018481526020018373ffffffffffffffffffffffffffffffffffffffff1673ffffffffffffffffffffffffffffffffffffffff16815260200182815260200194505050505060405180910390f35b34801561023c57600080fd5b506102696004803603602081101561025357600080fd5b8101908080359060200190929190505050610b44565b005b34801561027757600080fd5b506102a46004803603602081101561028e57600080fd5b8101908080359060200190929190505050610e04565b6040518080602001828103825283818151815260200191508051906020019080838360005b838110156102e45780820151818401526020810190506102c9565b50505050905090810190601f1680156103115780820380516001836020036101000a031916815260200191505b509250505060405180910390f35b836000600381111561032d57fe5b6001600083815260200190815260200160002060009054906101000a900460ff16600381111561035957fe5b14151561036557600080fd5b61036d610fee565b60c0604051908101604052808481526020013481526020013373ffffffffffffffffffffffffffffffffffffffff1681526020018673ffffffffffffffffffffffffffffffffffffffff16815260200185815260200160006040519080825280601f01601f1916602001820160405280156103f75781602001600182028038833980820191505090505b50815250905080600080888152602001908152602001600020600082015181600001556020820151816001015560408201518160020160006101000a81548173ffffffffffffffffffffffffffffffffffffffff021916908373ffffffffffffffffffffffffffffffffffffffff16021790555060608201518160030160006101000a81548173ffffffffffffffffffffffffffffffffffffffff021916908373ffffffffffffffffffffffffffffffffffffffff1602179055506080820151816004015560a08201518160050190805190602001906104d8929190611054565b50905050600180600088815260200190815260200160002060006101000a81548160ff0219169083600381111561050b57fe5b02179055507f6ed79a08bf5c8a7d4a330df315e4ac386627ecafbe5d2bfd6654237d967b24f3868686604051808481526020018373ffffffffffffffffffffffffffffffffffffffff1673ffffffffffffffffffffffffffffffffffffffff168152602001828152602001935050505060405180910390a1505050505050565b816001600381111561059957fe5b6001600083815260200190815260200160002060009054906101000a900460ff1660038111156105c557fe5b1415156105d157600080fd5b82826002816040518082805190602001908083835b60208310151561060b57805182526020820191506020810190506020830392506105e6565b6001836020036101000a038019825116818451168082178552505050505050905001915050602060405180830381855afa15801561064d573d6000803e3d6000fd5b5050506040513d602081101561066257600080fd5b81019080805190602001909291905050506000808481526020019081526020016000206004015414151561069557600080fd5b61069d610fee565b60008087815260200190815260200160002060c0604051908101604052908160008201548152602001600182015481526020016002820160009054906101000a900473ffffffffffffffffffffffffffffffffffffffff1673ffffffffffffffffffffffffffffffffffffffff1673ffffffffffffffffffffffffffffffffffffffff1681526020016003820160009054906101000a900473ffffffffffffffffffffffffffffffffffffffff1673ffffffffffffffffffffffffffffffffffffffff1673ffffffffffffffffffffffffffffffffffffffff16815260200160048201548152602001600582018054600181600116156101000203166002900480601f01602080910402602001604051908101604052809291908181526020018280546001816001161561010002031660029004801561081e5780601f106107f35761010080835404028352916020019161081e565b820191906000526020600020905b81548152906001019060200180831161080157829003601f168201915b50505050508152505090508460008088815260200190815260200160002060050190805190602001906108529291906110d4565b5060026001600088815260200190815260200160002060006101000a81548160ff0219169083600381111561088357fe5b0217905550806060015173ffffffffffffffffffffffffffffffffffffffff166108fc82602001519081150290604051600060405180830381858888f193505050501580156108d6573d6000803e3d6000fd5b507f692fd10a275135b9a2a2f5819db3d9965a5129ea2ad3640a0156dbce2fc81bdd86866040518083815260200180602001828103825283818151815260200191508051906020019080838360005b83811015610940578082015181840152602081019050610925565b50505050905090810190601f16801561096d5780820380516001836020036101000a031916815260200191505b50935050505060405180910390a1505050505050565b600080600080610991610fee565b60008087815260200190815260200160002060c0604051908101604052908160008201548152602001600182015481526020016002820160009054906101000a900473ffffffffffffffffffffffffffffffffffffffff1673ffffffffffffffffffffffffffffffffffffffff1673ffffffffffffffffffffffffffffffffffffffff1681526020016003820160009054906101000a900473ffffffffffffffffffffffffffffffffffffffff1673ffffffffffffffffffffffffffffffffffffffff1673ffffffffffffffffffffffffffffffffffffffff16815260200160048201548152602001600582018054600181600116156101000203166002900480601f016020809104026020016040519081016040528092919081815260200182805460018160011615610100020316600290048015610b125780601f10610ae757610100808354040283529160200191610b12565b820191906000526020600020905b815481529060010190602001808311610af557829003601f168201915b505050505081525050905080600001518160200151826060015183608001518191509450945094509450509193509193565b8060016003811115610b5257fe5b6001600083815260200190815260200160002060009054906101000a900460ff166003811115610b7e57fe5b141515610b8a57600080fd5b81600080828152602001908152602001600020600001544210151515610baf57600080fd5b610bb7610fee565b60008085815260200190815260200160002060c0604051908101604052908160008201548152602001600182015481526020016002820160009054906101000a900473ffffffffffffffffffffffffffffffffffffffff1673ffffffffffffffffffffffffffffffffffffffff1673ffffffffffffffffffffffffffffffffffffffff1681526020016003820160009054906101000a900473ffffffffffffffffffffffffffffffffffffffff1673ffffffffffffffffffffffffffffffffffffffff1673ffffffffffffffffffffffffffffffffffffffff16815260200160048201548152602001600582018054600181600116156101000203166002900480601f016020809104026020016040519081016040528092919081815260200182805460018160011615610100020316600290048015610d385780601f10610d0d57610100808354040283529160200191610d38565b820191906000526020600020905b815481529060010190602001808311610d1b57829003601f168201915b505050505081525050905060036001600086815260200190815260200160002060006101000a81548160ff02191690836003811115610d7357fe5b0217905550806040015173ffffffffffffffffffffffffffffffffffffffff166108fc82602001519081150290604051600060405180830381858888f19350505050158015610dc6573d6000803e3d6000fd5b507fbddd9b693ea862fad6ecf78fd51c065be26fda94d1f3cad3a7d691453a38a735846040518082815260200191505060405180910390a150505050565b60608160026003811115610e1457fe5b6001600083815260200190815260200160002060009054906101000a900460ff166003811115610e4057fe5b141515610e4c57600080fd5b610e54610fee565b60008085815260200190815260200160002060c0604051908101604052908160008201548152602001600182015481526020016002820160009054906101000a900473ffffffffffffffffffffffffffffffffffffffff1673ffffffffffffffffffffffffffffffffffffffff1673ffffffffffffffffffffffffffffffffffffffff1681526020016003820160009054906101000a900473ffffffffffffffffffffffffffffffffffffffff1673ffffffffffffffffffffffffffffffffffffffff1673ffffffffffffffffffffffffffffffffffffffff16815260200160048201548152602001600582018054600181600116156101000203166002900480601f016020809104026020016040519081016040528092919081815260200182805460018160011615610100020316600290048015610fd55780601f10610faa57610100808354040283529160200191610fd5565b820191906000526020600020905b815481529060010190602001808311610fb857829003601f168201915b50505050508152505090508060a0015192505050919050565b60c0604051908101604052806000815260200160008152602001600073ffffffffffffffffffffffffffffffffffffffff168152602001600073ffffffffffffffffffffffffffffffffffffffff16815260200160008019168152602001606081525090565b828054600181600116156101000203166002900490600052602060002090601f016020900481019282601f1061109557805160ff19168380011785556110c3565b828001600101855582156110c3579182015b828111156110c25782518255916020019190600101906110a7565b5b5090506110d09190611154565b5090565b828054600181600116156101000203166002900490600052602060002090601f016020900481019282601f1061111557805160ff1916838001178555611143565b82800160010185558215611143579182015b82811115611142578251825591602001919060010190611127565b5b5090506111509190611154565b5090565b61117691905b8082111561117257600081600090555060010161115a565b5090565b9056fea165627a7a7230582057ae47fe139888411d55b4b0768a6e49865d23693849ddd860e6aa413e15c7770029",
  "linkReferences": {},
  "deployedLinkReferences": {}
}