{
  "_format": "hh-sol-artifact-1",
  "contractName": "AtomicSwapERC20",
  "sourceName": "contracts/AtomicSwapERC20.sol",
  "abi": [
    {
      "constant": false,
      "inputs": [
        {
          "name": "_swapID",
          "type": "bytes32"
        },
        {
          "name": "_secretKey",
          "type": "bytes"
        }
      ],
      "name": "close",
      "outputs": [],
      "payable": false,
      "stateMutability": "nonpayable",
      "type": "function"
    },
    {
      "constant": true,
      "inputs": [
        {
          "name": "_swapID",
          "type": "bytes32"
        }
      ],
      "name": "check",
      "outputs": [
        {
          "name": "timelock",
          "type": "uint256"
        },
        {
          "name": "erc20Value",
          "type": "uint256"
        },
        {
          "name": "erc20ContractAddress",
          "type": "address"
        },
        {
          "name": "withdrawTrader",
          "type": "address"
        },
        {
          "name": "secretLock",
          "type": "bytes32"
        }
      ],
      "payable": false,
      "stateMutability": "view",
      "type": "function"
    },
    {
      "constant": false,
      "inputs": [
        {
          "name": "_swapID",
          "type": "bytes32"
        },
        {
          "name": "_erc20Value",
          "type": "uint256"
        },
        {
          "name": "_erc20ContractAddress",
          "type": "address"
        },
        {
          "name": "_withdrawTrader",
          "type": "address"
        },
        {
          "name": "_secretLock",
          "type": "bytes32"
        },
        {
          "name": "_timelock",
          "type": "uint256"
        }
      ],
      "name": "open",
      "outputs": [],
      "payable": false,
      "stateMutability": "nonpayable",
      "type": "function"
    },
    {
      "constant": false,
      "inputs": [
        {
          "name": "_swapID",
          "type": "bytes32"
        }
      ],
      "name": "expire",
      "outputs": [],
      "payable": false,
      "stateMutability": "nonpayable",
      "type": "function"
    },
    {
      "constant": true,
      "inputs": [
        {
          "name": "_swapID",
          "type": "bytes32"
        }
      ],
      "name": "checkSecretKey",
      "outputs": [
        {
          "name": "secretKey",
          "type": "bytes"
        }
      ],
      "payable": false,
      "stateMutability": "view",
      "type": "function"
    },
    {
      "anonymous": false,
      "inputs": [
        {
          "indexed": false,
          "name": "_swapID",
          "type": "bytes32"
        },
        {
          "indexed": false,
          "name": "_withdrawTrader",
          "type": "address"
        },
        {
          "indexed": false,
          "name": "_secretLock",
          "type": "bytes32"
        }
      ],
      "name": "Open",
      "type": "event"
    },
    {
      "anonymous": false,
      "inputs": [
        {
          "indexed": false,
          "name": "_swapID",
          "type": "bytes32"
        }
      ],
      "name": "Expire",
      "type": "event"
    },
    {
      "anonymous": false,
      "inputs": [
        {
          "indexed": false,
          "name": "_swapID",
          "type": "bytes32"
        },
        {
          "indexed": false,
          "name": "_secretKey",
          "type": "bytes"
        }
      ],
      "name": "Close",
      "type": "event"
    }
  ],
  "bytecode": "0x608060405234801561001057600080fd5b5061224d806100206000396000f3fe608060405260043610610067576000357c0100000000000000000000000000000000000000000000000000000000900480631a26720c1461006c578063399e07921461013e5780635d44011e14610201578063c64417981461029a578063f200e404146102d5575b600080fd5b34801561007857600080fd5b5061013c6004803603604081101561008f57600080fd5b8101908080359060200190929190803590602001906401000000008111156100b657600080fd5b8201836020820111156100c857600080fd5b803590602001918460018302840111640100000000831117156100ea57600080fd5b91908080601f016020809104026020016040519081016040528093929190818152602001838380828437600081840152601f19601f820116905080830192505050505050509192919290505050610389565b005b34801561014a57600080fd5b506101776004803603602081101561016157600080fd5b8101908080359060200190929190505050610bf0565b604051808681526020018581526020018473ffffffffffffffffffffffffffffffffffffffff1673ffffffffffffffffffffffffffffffffffffffff1681526020018373ffffffffffffffffffffffffffffffffffffffff1673ffffffffffffffffffffffffffffffffffffffff1681526020018281526020019550505050505060405180910390f35b34801561020d57600080fd5b50610298600480360360c081101561022457600080fd5b810190808035906020019092919080359060200190929190803573ffffffffffffffffffffffffffffffffffffffff169060200190929190803573ffffffffffffffffffffffffffffffffffffffff1690602001909291908035906020019092919080359060200190929190505050610e0f565b005b3480156102a657600080fd5b506102d3600480360360208110156102bd57600080fd5b810190808035906020019092919050505061149c565b005b3480156102e157600080fd5b5061030e600480360360208110156102f857600080fd5b8101908080359060200190929190505050611a57565b6040518080602001828103825283818151815260200191508051906020019080838360005b8381101561034e578082015181840152602081019050610333565b50505050905090810190601f16801561037b5780820380516001836020036101000a031916815260200191505b509250505060405180910390f35b81610429606060405190810160405280602f81526020017f436f6e7472616374202d2d3e3e206f6e6c794f70656e53776170732d5374617481526020017f65733a205374617465732e4f50454e0000000000000000000000000000000000815250600160038111156103f757fe5b6001600085815260200190815260200160002060009054906101000a900460ff16600381111561042357fe5b14611dae565b6001600381111561043657fe5b6001600083815260200190815260200160002060009054906101000a900460ff16600381111561046257fe5b14151561046e57600080fd5b828261058c606060405190810160405280603581526020017f436f6e7472616374202d2d3e3e206f6e6c79576974685365637265744b65792d81526020017f5374617465733a205374617465732e434c4f53454400000000000000000000008152506002836040518082805190602001908083835b60208310151561050857805182526020820191506020810190506020830392506104e3565b6001836020036101000a038019825116818451168082178552505050505050905001915050602060405180830381855afa15801561054a573d6000803e3d6000fd5b5050506040513d602081101561055f57600080fd5b81019080805190602001909291905050506000808681526020019081526020016000206005015414611dae565b60006002826040518082805190602001908083835b6020831015156105c657805182526020820191506020810190506020830392506105a1565b6001836020036101000a038019825116818451168082178552505050505050905001915050602060405180830381855afa158015610608573d6000803e3d6000fd5b5050506040513d602081101561061d57600080fd5b81019080805190602001909291905050509050610695606060405190810160405280602681526020017f436f6e7472616374202d2d3e3e206f6e6c79576974685365637265744b65792081526020017f5f6b65793a200000000000000000000000000000000000000000000000000000815250611eb9565b61069e81611fb7565b6002826040518082805190602001908083835b6020831015156106d657805182526020820191506020810190506020830392506106b1565b6001836020036101000a038019825116818451168082178552505050505050905001915050602060405180830381855afa158015610718573d6000803e3d6000fd5b5050506040513d602081101561072d57600080fd5b81019080805190602001909291905050506000808581526020019081526020016000206005015414151561076057600080fd5b610768612079565b60008088815260200190815260200160002060e0604051908101604052908160008201548152602001600182015481526020016002820160009054906101000a900473ffffffffffffffffffffffffffffffffffffffff1673ffffffffffffffffffffffffffffffffffffffff1673ffffffffffffffffffffffffffffffffffffffff1681526020016003820160009054906101000a900473ffffffffffffffffffffffffffffffffffffffff1673ffffffffffffffffffffffffffffffffffffffff1673ffffffffffffffffffffffffffffffffffffffff1681526020016004820160009054906101000a900473ffffffffffffffffffffffffffffffffffffffff1673ffffffffffffffffffffffffffffffffffffffff1673ffffffffffffffffffffffffffffffffffffffff16815260200160058201548152602001600682018054600181600116156101000203166002900480601f01602080910402602001604051908101604052809291908181526020018280546001816001161561010002031660029004801561093f5780601f106109145761010080835404028352916020019161093f565b820191906000526020600020905b81548152906001019060200180831161092257829003601f168201915b50505050508152505090508560008089815260200190815260200160002060060190805190602001906109739291906120fc565b5060026001600089815260200190815260200160002060006101000a81548160ff021916908360038111156109a457fe5b02179055506000816060015190508073ffffffffffffffffffffffffffffffffffffffff1663a9059cbb836080015184602001516040518363ffffffff167c0100000000000000000000000000000000000000000000000000000000028152600401808373ffffffffffffffffffffffffffffffffffffffff1673ffffffffffffffffffffffffffffffffffffffff16815260200182815260200192505050602060405180830381600087803b158015610a5d57600080fd5b505af1158015610a71573d6000803e3d6000fd5b505050506040513d6020811015610a8757600080fd5b81019080805190602001909291905050501515610aa357600080fd5b610b42606060405190810160405280602581526020017f436f6e7472616374202d2d3e3e20636f6c736528293a205374617465732e434c81526020017f4f5345442000000000000000000000000000000000000000000000000000000081525060026003811115610b1057fe5b600160008c815260200190815260200160002060009054906101000a900460ff166003811115610b3c57fe5b14611dae565b7f692fd10a275135b9a2a2f5819db3d9965a5129ea2ad3640a0156dbce2fc81bdd88886040518083815260200180602001828103825283818151815260200191508051906020019080838360005b83811015610bab578082015181840152602081019050610b90565b50505050905090810190601f168015610bd85780820380516001836020036101000a031916815260200191505b50935050505060405180910390a15050505050505050565b6000806000806000610c00612079565b60008088815260200190815260200160002060e0604051908101604052908160008201548152602001600182015481526020016002820160009054906101000a900473ffffffffffffffffffffffffffffffffffffffff1673ffffffffffffffffffffffffffffffffffffffff1673ffffffffffffffffffffffffffffffffffffffff1681526020016003820160009054906101000a900473ffffffffffffffffffffffffffffffffffffffff1673ffffffffffffffffffffffffffffffffffffffff1673ffffffffffffffffffffffffffffffffffffffff1681526020016004820160009054906101000a900473ffffffffffffffffffffffffffffffffffffffff1673ffffffffffffffffffffffffffffffffffffffff1673ffffffffffffffffffffffffffffffffffffffff16815260200160058201548152602001600682018054600181600116156101000203166002900480601f016020809104026020016040519081016040528092919081815260200182805460018160011615610100020316600290048015610dd75780601f10610dac57610100808354040283529160200191610dd7565b820191906000526020600020905b815481529060010190602001808311610dba57829003601f168201915b505050505081525050905080600001518160200151826060015183608001518460a00151955095509550955095505091939590929450565b85610eaf606060405190810160405280603581526020017f436f6e7472616374202d2d3e3e206f6e6c79496e76616c696453776170732d5381526020017f74617465733a205374617465732e494e56414c4944000000000000000000000081525060006003811115610e7d57fe5b6001600085815260200190815260200160002060009054906101000a900460ff166003811115610ea957fe5b14611dae565b60006003811115610ebc57fe5b6001600083815260200190815260200160002060009054906101000a900460ff166003811115610ee857fe5b141515610ef457600080fd5b60006003811115610f0157fe5b6001600089815260200190815260200160002060009054906101000a900460ff166003811115610f2d57fe5b141515610f3957600080fd5b60008590508073ffffffffffffffffffffffffffffffffffffffff1663dd62ed3e33306040518363ffffffff167c0100000000000000000000000000000000000000000000000000000000028152600401808373ffffffffffffffffffffffffffffffffffffffff1673ffffffffffffffffffffffffffffffffffffffff1681526020018273ffffffffffffffffffffffffffffffffffffffff1673ffffffffffffffffffffffffffffffffffffffff1681526020019250505060206040518083038186803b15801561100b57600080fd5b505afa15801561101f573d6000803e3d6000fd5b505050506040513d602081101561103557600080fd5b8101908080519060200190929190505050871115151561105457600080fd5b8073ffffffffffffffffffffffffffffffffffffffff166323b872dd33308a6040518463ffffffff167c0100000000000000000000000000000000000000000000000000000000028152600401808473ffffffffffffffffffffffffffffffffffffffff1673ffffffffffffffffffffffffffffffffffffffff1681526020018373ffffffffffffffffffffffffffffffffffffffff1673ffffffffffffffffffffffffffffffffffffffff1681526020018281526020019350505050602060405180830381600087803b15801561112b57600080fd5b505af115801561113f573d6000803e3d6000fd5b505050506040513d602081101561115557600080fd5b8101908080519060200190929190505050151561117157600080fd5b611179612079565b60e0604051908101604052808581526020018981526020013373ffffffffffffffffffffffffffffffffffffffff1681526020018873ffffffffffffffffffffffffffffffffffffffff1681526020018773ffffffffffffffffffffffffffffffffffffffff16815260200186815260200160006040519080825280601f01601f19166020018201604052801561121f5781602001600182028038833980820191505090505b508152509050806000808b8152602001908152602001600020600082015181600001556020820151816001015560408201518160020160006101000a81548173ffffffffffffffffffffffffffffffffffffffff021916908373ffffffffffffffffffffffffffffffffffffffff16021790555060608201518160030160006101000a81548173ffffffffffffffffffffffffffffffffffffffff021916908373ffffffffffffffffffffffffffffffffffffffff16021790555060808201518160040160006101000a81548173ffffffffffffffffffffffffffffffffffffffff021916908373ffffffffffffffffffffffffffffffffffffffff16021790555060a0820151816005015560c082015181600601908051906020019061134792919061217c565b5090505060018060008b815260200190815260200160002060006101000a81548160ff0219169083600381111561137a57fe5b021790555061141e606060405190810160405280602281526020017f436f6e7472616374202d2d3e3e206f70656e28293a205374617465732e4f504581526020017f4e20000000000000000000000000000000000000000000000000000000000000815250600160038111156113ec57fe5b600160008d815260200190815260200160002060009054906101000a900460ff16600381111561141857fe5b14611dae565b7f6ed79a08bf5c8a7d4a330df315e4ac386627ecafbe5d2bfd6654237d967b24f3898787604051808481526020018373ffffffffffffffffffffffffffffffffffffffff1673ffffffffffffffffffffffffffffffffffffffff168152602001828152602001935050505060405180910390a1505050505050505050565b8061153c606060405190810160405280602f81526020017f436f6e7472616374202d2d3e3e206f6e6c794f70656e53776170732d5374617481526020017f65733a205374617465732e4f50454e00000000000000000000000000000000008152506001600381111561150a57fe5b6001600085815260200190815260200160002060009054906101000a900460ff16600381111561153657fe5b14611dae565b6001600381111561154957fe5b6001600083815260200190815260200160002060009054906101000a900460ff16600381111561157557fe5b14151561158157600080fd5b81611600606060405190810160405280603281526020017f436f6e7472616374202d2d3e3e206f6e6c79457870697261626c65537761707381526020017f2d5374617465733a2074696d656c6f636b20000000000000000000000000000081525042600080858152602001908152602001600020600001541115611dae565b42600080838152602001908152602001600020600001541115151561162457600080fd5b6116626040805190810160405280601781526020017f436f6e7472616374202d2d3e3e20657870697265282920000000000000000000815250611eb9565b61166a612079565b60008085815260200190815260200160002060e0604051908101604052908160008201548152602001600182015481526020016002820160009054906101000a900473ffffffffffffffffffffffffffffffffffffffff1673ffffffffffffffffffffffffffffffffffffffff1673ffffffffffffffffffffffffffffffffffffffff1681526020016003820160009054906101000a900473ffffffffffffffffffffffffffffffffffffffff1673ffffffffffffffffffffffffffffffffffffffff1673ffffffffffffffffffffffffffffffffffffffff1681526020016004820160009054906101000a900473ffffffffffffffffffffffffffffffffffffffff1673ffffffffffffffffffffffffffffffffffffffff1673ffffffffffffffffffffffffffffffffffffffff16815260200160058201548152602001600682018054600181600116156101000203166002900480601f0160208091040260200160405190810160405280929190818152602001828054600181600116156101000203166002900480156118415780601f1061181657610100808354040283529160200191611841565b820191906000526020600020905b81548152906001019060200180831161182457829003601f168201915b505050505081525050905060036001600086815260200190815260200160002060006101000a81548160ff0219169083600381111561187c57fe5b02179055506000816060015190508073ffffffffffffffffffffffffffffffffffffffff1663a9059cbb836040015184602001516040518363ffffffff167c0100000000000000000000000000000000000000000000000000000000028152600401808373ffffffffffffffffffffffffffffffffffffffff1673ffffffffffffffffffffffffffffffffffffffff16815260200182815260200192505050602060405180830381600087803b15801561193557600080fd5b505af1158015611949573d6000803e3d6000fd5b505050506040513d602081101561195f57600080fd5b8101908080519060200190929190505050151561197b57600080fd5b611a19606060405190810160405280602781526020017f436f6e7472616374202d2d3e3e2065787069726528293a205374617465732e4581526020017f58504952454420000000000000000000000000000000000000000000000000008152506003808111156119e757fe5b6001600089815260200190815260200160002060009054906101000a900460ff166003811115611a1357fe5b14611dae565b7fbddd9b693ea862fad6ecf78fd51c065be26fda94d1f3cad3a7d691453a38a735856040518082815260200191505060405180910390a15050505050565b606081611af9606060405190810160405280603381526020017f436f6e7472616374202d2d3e3e206f6e6c79436c6f73656453776170732d537481526020017f617465733a205374617465732e434c4f5345440000000000000000000000000081525060026003811115611ac757fe5b6001600085815260200190815260200160002060009054906101000a900460ff166003811115611af357fe5b14611dae565b60026003811115611b0657fe5b6001600083815260200190815260200160002060009054906101000a900460ff166003811115611b3257fe5b141515611b3e57600080fd5b611bb66040805190810160405280601f81526020017f436f6e7472616374202d2d3e3e20636865636b5365637265744b657928293a0081525060016003811115611b8457fe5b6001600087815260200190815260200160002060009054906101000a900460ff166003811115611bb057fe5b14611dae565b611bbe612079565b60008085815260200190815260200160002060e0604051908101604052908160008201548152602001600182015481526020016002820160009054906101000a900473ffffffffffffffffffffffffffffffffffffffff1673ffffffffffffffffffffffffffffffffffffffff1673ffffffffffffffffffffffffffffffffffffffff1681526020016003820160009054906101000a900473ffffffffffffffffffffffffffffffffffffffff1673ffffffffffffffffffffffffffffffffffffffff1673ffffffffffffffffffffffffffffffffffffffff1681526020016004820160009054906101000a900473ffffffffffffffffffffffffffffffffffffffff1673ffffffffffffffffffffffffffffffffffffffff1673ffffffffffffffffffffffffffffffffffffffff16815260200160058201548152602001600682018054600181600116156101000203166002900480601f016020809104026020016040519081016040528092919081815260200182805460018160011615610100020316600290048015611d955780601f10611d6a57610100808354040283529160200191611d95565b820191906000526020600020905b815481529060010190602001808311611d7857829003601f168201915b50505050508152505090508060c0015192505050919050565b611eb58282604051602401808060200183151515158152602001828103825284818151815260200191508051906020019080838360005b83811015611e00578082015181840152602081019050611de5565b50505050905090810190601f168015611e2d5780820380516001836020036101000a031916815260200191505b5093505050506040516020818303038152906040527fc3b55635000000000000000000000000000000000000000000000000000000007bffffffffffffffffffffffffffffffffffffffffffffffffffffffff19166020820180517bffffffffffffffffffffffffffffffffffffffffffffffffffffffff8381831617835250505050612050565b5050565b611fb4816040516024018080602001828103825283818151815260200191508051906020019080838360005b83811015611f00578082015181840152602081019050611ee5565b50505050905090810190601f168015611f2d5780820380516001836020036101000a031916815260200191505b50925050506040516020818303038152906040527f41304fac000000000000000000000000000000000000000000000000000000007bffffffffffffffffffffffffffffffffffffffffffffffffffffffff19166020820180517bffffffffffffffffffffffffffffffffffffffffffffffffffffffff8381831617835250505050612050565b50565b61204d81604051602401808281526020019150506040516020818303038152906040527f27b7cf85000000000000000000000000000000000000000000000000000000007bffffffffffffffffffffffffffffffffffffffffffffffffffffffff19166020820180517bffffffffffffffffffffffffffffffffffffffffffffffffffffffff8381831617835250505050612050565b50565b60008151905060006a636f6e736f6c652e6c6f679050602083016000808483855afa5050505050565b60e0604051908101604052806000815260200160008152602001600073ffffffffffffffffffffffffffffffffffffffff168152602001600073ffffffffffffffffffffffffffffffffffffffff168152602001600073ffffffffffffffffffffffffffffffffffffffff16815260200160008019168152602001606081525090565b828054600181600116156101000203166002900490600052602060002090601f016020900481019282601f1061213d57805160ff191683800117855561216b565b8280016001018555821561216b579182015b8281111561216a57825182559160200191906001019061214f565b5b50905061217891906121fc565b5090565b828054600181600116156101000203166002900490600052602060002090601f016020900481019282601f106121bd57805160ff19168380011785556121eb565b828001600101855582156121eb579182015b828111156121ea5782518255916020019190600101906121cf565b5b5090506121f891906121fc565b5090565b61221e91905b8082111561221a576000816000905550600101612202565b5090565b9056fea165627a7a7230582046ee2a8350c9fd0a62dcd2cf267d9afb323126266150809d3e0f4b2f497dccca0029",
  "linkReferences": {},
  "deployedLinkReferences": {}
}